{
  "contractName": "Casino",
  "abi": [
    {
      "inputs": [],
      "payable": false,
      "stateMutability": "nonpayable",
      "type": "constructor"
    },
    {
      "anonymous": false,
      "inputs": [
        {
          "indexed": false,
          "name": "tape1",
          "type": "uint8"
        },
        {
          "indexed": false,
          "name": "tape2",
          "type": "uint8"
        },
        {
          "indexed": false,
          "name": "tape3",
          "type": "uint8"
        },
        {
          "indexed": false,
          "name": "reward",
          "type": "uint256"
        }
      ],
      "name": "GameResult",
      "type": "event"
    },
    {
      "constant": false,
      "inputs": [],
      "name": "play",
      "outputs": [],
      "payable": true,
      "stateMutability": "payable",
      "type": "function"
    }
  ],
  "bytecode": "0x608060405260506000806101000a81548160ff021916908360ff16021790555034801561002b57600080fd5b5061043d8061003b6000396000f300608060405260043610610041576000357c0100000000000000000000000000000000000000000000000000000000900463ffffffff16806393e84cd914610046575b600080fd5b61004e610050565b005b60008060008061005f3361015f565b935061006a33610245565b92506100753361032b565b9150600090508260ff168460ff1614801561009557508160ff168360ff16145b156100f8576000809054906101000a900460ff1660ff16340290503373ffffffffffffffffffffffffffffffffffffffff166108fc829081150290604051600060405180830381858888f193505050501580156100f6573d6000803e3d6000fd5b505b7fa216ccdf380e790c1c4c4b46422fd88387bba9e6f6e282a7b88ac361464c2fe784848484604051808560ff1660ff1681526020018460ff1660ff1681526020018360ff1660ff16815260200182815260200194505050505060405180910390a150505050565b60006003424484604051602001808481526020018381526020018273ffffffffffffffffffffffffffffffffffffffff1673ffffffffffffffffffffffffffffffffffffffff166c0100000000000000000000000002815260140193505050506040516020818303038152906040526040518082805190602001908083835b60208310151561020357805182526020820191506020810190506020830392506101de565b6001836020036101000a03801982511681845116808217855250505050505090500191505060405180910390206001900481151561023d57fe5b069050919050565b60006003444284604051602001808481526020018381526020018273ffffffffffffffffffffffffffffffffffffffff1673ffffffffffffffffffffffffffffffffffffffff166c0100000000000000000000000002815260140193505050506040516020818303038152906040526040518082805190602001908083835b6020831015156102e957805182526020820191506020810190506020830392506102c4565b6001836020036101000a03801982511681845116808217855250505050505090500191505060405180910390206001900481151561032357fe5b069050919050565b60006003824244604051602001808473ffffffffffffffffffffffffffffffffffffffff1673ffffffffffffffffffffffffffffffffffffffff166c0100000000000000000000000002815260140183815260200182815260200193505050506040516020818303038152906040526040518082805190602001908083835b6020831015156103cf57805182526020820191506020810190506020830392506103aa565b6001836020036101000a03801982511681845116808217855250505050505090500191505060405180910390206001900481151561040957fe5b0690509190505600a165627a7a723058208fafcfba34f3bb86c637e976899b86f7bd5884948058d63e1750ee8d7b8abe720029",
  "source": "pragma solidity ^0.4.23;\n\ncontract Casino {\n    uint8 reward = 80; // 80 times bigger, as the changes of winning 1/3 * 1/3 = > 0.111 => 11%\n\n    event GameResult(uint8 tape1, uint8 tape2, uint8 tape3, uint256 reward);\n\n    constructor() public {\n    }\n\n    function play() payable public {\n        uint8 _number1 = generateRandomNumber1(msg.sender);\n        uint8 _number2 = generateRandomNumber2(msg.sender);\n        uint8 _number3 = generateRandomNumber3(msg.sender);\n\n        uint256 _reward = 0;\n        if (_number1 == _number2 && _number2 == _number3) {\n            // send a reward\n            _reward = msg.value * reward;\n            msg.sender.transfer(_reward);\n        }\n\n        emit GameResult(_number1, _number2, _number3, _reward);\n    }\n\n    function generateRandomNumber1(address sender) view private returns (uint8) {\n        return uint8(uint256(keccak256(abi.encodePacked(block.timestamp, block.difficulty, sender))) % 3);\n    }\n\n    function generateRandomNumber2(address sender) view private returns (uint8) {\n        return uint8(uint256(keccak256(abi.encodePacked(block.difficulty, block.timestamp, sender))) % 3);\n    }\n\n    function generateRandomNumber3(address sender) view private returns (uint8) {\n        return uint8(uint256(keccak256(abi.encodePacked(sender, block.timestamp, block.difficulty))) % 3);\n    }\n}\n",
  "sourcePath": "/home/artem/work/blockchain/erc20/contracts/Casino.sol",
  "compiler": {
    "name": "solc",
    "version": "0.4.24+commit.e67f0147.Emscripten.clang"
  },
  "schemaVersion": "2.0.1",
  "updatedAt": "2018-11-02T09:44:07.845Z"
}